{
  "_format": "hh-sol-artifact-1",
  "contractName": "RandomIpfsNft",
  "sourceName": "contracts/RandomIpfsNft.sol",
  "abi": [
    {
      "inputs": [
        {
          "internalType": "address",
          "name": "vrfCoordinatorV2",
          "type": "address"
        },
        {
          "internalType": "uint64",
          "name": "subscriptionId",
          "type": "uint64"
        },
        {
          "internalType": "bytes32",
          "name": "gasLane",
          "type": "bytes32"
        },
        {
          "internalType": "uint32",
          "name": "callbackGasLimit",
          "type": "uint32"
        },
        {
          "internalType": "string[3]",
          "name": "dogTokenUris",
          "type": "string[3]"
        },
        {
          "internalType": "uint256",
          "name": "mintFee",
          "type": "uint256"
        }
      ],
      "stateMutability": "nonpayable",
      "type": "constructor"
    },
    {
      "inputs": [
        {
          "internalType": "address",
          "name": "have",
          "type": "address"
        },
        {
          "internalType": "address",
          "name": "want",
          "type": "address"
        }
      ],
      "name": "OnlyCoordinatorCanFulfill",
      "type": "error"
    },
    {
      "inputs": [],
      "name": "RandomIpfsNft__NeedMoreEthSent",
      "type": "error"
    },
    {
      "inputs": [],
      "name": "RandomIpfsNft__RangeOutOfBounds",
      "type": "error"
    },
    {
      "inputs": [],
      "name": "RandomIpfsNft__TransferFailed",
      "type": "error"
    },
    {
      "anonymous": false,
      "inputs": [
        {
          "indexed": true,
          "internalType": "address",
          "name": "owner",
          "type": "address"
        },
        {
          "indexed": true,
          "internalType": "address",
          "name": "approved",
          "type": "address"
        },
        {
          "indexed": true,
          "internalType": "uint256",
          "name": "tokenId",
          "type": "uint256"
        }
      ],
      "name": "Approval",
      "type": "event"
    },
    {
      "anonymous": false,
      "inputs": [
        {
          "indexed": true,
          "internalType": "address",
          "name": "owner",
          "type": "address"
        },
        {
          "indexed": true,
          "internalType": "address",
          "name": "operator",
          "type": "address"
        },
        {
          "indexed": false,
          "internalType": "bool",
          "name": "approved",
          "type": "bool"
        }
      ],
      "name": "ApprovalForAll",
      "type": "event"
    },
    {
      "anonymous": false,
      "inputs": [
        {
          "indexed": false,
          "internalType": "enum RandomIpfsNft.Breed",
          "name": "dogBreed",
          "type": "uint8"
        },
        {
          "indexed": false,
          "internalType": "address",
          "name": "minter",
          "type": "address"
        }
      ],
      "name": "NftMinted",
      "type": "event"
    },
    {
      "anonymous": false,
      "inputs": [
        {
          "indexed": true,
          "internalType": "uint256",
          "name": "requestId",
          "type": "uint256"
        },
        {
          "indexed": false,
          "internalType": "address",
          "name": "requester",
          "type": "address"
        }
      ],
      "name": "NftRequested",
      "type": "event"
    },
    {
      "anonymous": false,
      "inputs": [
        {
          "indexed": true,
          "internalType": "address",
          "name": "previousOwner",
          "type": "address"
        },
        {
          "indexed": true,
          "internalType": "address",
          "name": "newOwner",
          "type": "address"
        }
      ],
      "name": "OwnershipTransferred",
      "type": "event"
    },
    {
      "anonymous": false,
      "inputs": [
        {
          "indexed": true,
          "internalType": "address",
          "name": "from",
          "type": "address"
        },
        {
          "indexed": true,
          "internalType": "address",
          "name": "to",
          "type": "address"
        },
        {
          "indexed": true,
          "internalType": "uint256",
          "name": "tokenId",
          "type": "uint256"
        }
      ],
      "name": "Transfer",
      "type": "event"
    },
    {
      "inputs": [
        {
          "internalType": "address",
          "name": "to",
          "type": "address"
        },
        {
          "internalType": "uint256",
          "name": "tokenId",
          "type": "uint256"
        }
      ],
      "name": "approve",
      "outputs": [],
      "stateMutability": "nonpayable",
      "type": "function"
    },
    {
      "inputs": [
        {
          "internalType": "address",
          "name": "owner",
          "type": "address"
        }
      ],
      "name": "balanceOf",
      "outputs": [
        {
          "internalType": "uint256",
          "name": "",
          "type": "uint256"
        }
      ],
      "stateMutability": "view",
      "type": "function"
    },
    {
      "inputs": [
        {
          "internalType": "uint256",
          "name": "tokenId",
          "type": "uint256"
        }
      ],
      "name": "getApproved",
      "outputs": [
        {
          "internalType": "address",
          "name": "",
          "type": "address"
        }
      ],
      "stateMutability": "view",
      "type": "function"
    },
    {
      "inputs": [
        {
          "internalType": "uint256",
          "name": "moddedRng",
          "type": "uint256"
        }
      ],
      "name": "getBreedFromModdedRng",
      "outputs": [
        {
          "internalType": "enum RandomIpfsNft.Breed",
          "name": "",
          "type": "uint8"
        }
      ],
      "stateMutability": "pure",
      "type": "function"
    },
    {
      "inputs": [],
      "name": "getChanceArray",
      "outputs": [
        {
          "internalType": "uint256[3]",
          "name": "",
          "type": "uint256[3]"
        }
      ],
      "stateMutability": "pure",
      "type": "function"
    },
    {
      "inputs": [
        {
          "internalType": "uint256",
          "name": "index",
          "type": "uint256"
        }
      ],
      "name": "getDogTokenUris",
      "outputs": [
        {
          "internalType": "string",
          "name": "",
          "type": "string"
        }
      ],
      "stateMutability": "view",
      "type": "function"
    },
    {
      "inputs": [],
      "name": "getMintFee",
      "outputs": [
        {
          "internalType": "uint256",
          "name": "",
          "type": "uint256"
        }
      ],
      "stateMutability": "view",
      "type": "function"
    },
    {
      "inputs": [],
      "name": "getTokenCounter",
      "outputs": [
        {
          "internalType": "uint256",
          "name": "",
          "type": "uint256"
        }
      ],
      "stateMutability": "view",
      "type": "function"
    },
    {
      "inputs": [
        {
          "internalType": "address",
          "name": "owner",
          "type": "address"
        },
        {
          "internalType": "address",
          "name": "operator",
          "type": "address"
        }
      ],
      "name": "isApprovedForAll",
      "outputs": [
        {
          "internalType": "bool",
          "name": "",
          "type": "bool"
        }
      ],
      "stateMutability": "view",
      "type": "function"
    },
    {
      "inputs": [],
      "name": "name",
      "outputs": [
        {
          "internalType": "string",
          "name": "",
          "type": "string"
        }
      ],
      "stateMutability": "view",
      "type": "function"
    },
    {
      "inputs": [],
      "name": "owner",
      "outputs": [
        {
          "internalType": "address",
          "name": "",
          "type": "address"
        }
      ],
      "stateMutability": "view",
      "type": "function"
    },
    {
      "inputs": [
        {
          "internalType": "uint256",
          "name": "tokenId",
          "type": "uint256"
        }
      ],
      "name": "ownerOf",
      "outputs": [
        {
          "internalType": "address",
          "name": "",
          "type": "address"
        }
      ],
      "stateMutability": "view",
      "type": "function"
    },
    {
      "inputs": [
        {
          "internalType": "uint256",
          "name": "requestId",
          "type": "uint256"
        },
        {
          "internalType": "uint256[]",
          "name": "randomWords",
          "type": "uint256[]"
        }
      ],
      "name": "rawFulfillRandomWords",
      "outputs": [],
      "stateMutability": "nonpayable",
      "type": "function"
    },
    {
      "inputs": [],
      "name": "renounceOwnership",
      "outputs": [],
      "stateMutability": "nonpayable",
      "type": "function"
    },
    {
      "inputs": [],
      "name": "requestNft",
      "outputs": [
        {
          "internalType": "uint256",
          "name": "requestId",
          "type": "uint256"
        }
      ],
      "stateMutability": "payable",
      "type": "function"
    },
    {
      "inputs": [
        {
          "internalType": "uint256",
          "name": "",
          "type": "uint256"
        }
      ],
      "name": "s_requestIdToSender",
      "outputs": [
        {
          "internalType": "address",
          "name": "",
          "type": "address"
        }
      ],
      "stateMutability": "view",
      "type": "function"
    },
    {
      "inputs": [],
      "name": "s_tokenCounter",
      "outputs": [
        {
          "internalType": "uint256",
          "name": "",
          "type": "uint256"
        }
      ],
      "stateMutability": "view",
      "type": "function"
    },
    {
      "inputs": [
        {
          "internalType": "address",
          "name": "from",
          "type": "address"
        },
        {
          "internalType": "address",
          "name": "to",
          "type": "address"
        },
        {
          "internalType": "uint256",
          "name": "tokenId",
          "type": "uint256"
        }
      ],
      "name": "safeTransferFrom",
      "outputs": [],
      "stateMutability": "nonpayable",
      "type": "function"
    },
    {
      "inputs": [
        {
          "internalType": "address",
          "name": "from",
          "type": "address"
        },
        {
          "internalType": "address",
          "name": "to",
          "type": "address"
        },
        {
          "internalType": "uint256",
          "name": "tokenId",
          "type": "uint256"
        },
        {
          "internalType": "bytes",
          "name": "data",
          "type": "bytes"
        }
      ],
      "name": "safeTransferFrom",
      "outputs": [],
      "stateMutability": "nonpayable",
      "type": "function"
    },
    {
      "inputs": [
        {
          "internalType": "address",
          "name": "operator",
          "type": "address"
        },
        {
          "internalType": "bool",
          "name": "approved",
          "type": "bool"
        }
      ],
      "name": "setApprovalForAll",
      "outputs": [],
      "stateMutability": "nonpayable",
      "type": "function"
    },
    {
      "inputs": [
        {
          "internalType": "bytes4",
          "name": "interfaceId",
          "type": "bytes4"
        }
      ],
      "name": "supportsInterface",
      "outputs": [
        {
          "internalType": "bool",
          "name": "",
          "type": "bool"
        }
      ],
      "stateMutability": "view",
      "type": "function"
    },
    {
      "inputs": [],
      "name": "symbol",
      "outputs": [
        {
          "internalType": "string",
          "name": "",
          "type": "string"
        }
      ],
      "stateMutability": "view",
      "type": "function"
    },
    {
      "inputs": [
        {
          "internalType": "uint256",
          "name": "",
          "type": "uint256"
        }
      ],
      "name": "tokenURI",
      "outputs": [
        {
          "internalType": "string",
          "name": "",
          "type": "string"
        }
      ],
      "stateMutability": "view",
      "type": "function"
    },
    {
      "inputs": [
        {
          "internalType": "address",
          "name": "from",
          "type": "address"
        },
        {
          "internalType": "address",
          "name": "to",
          "type": "address"
        },
        {
          "internalType": "uint256",
          "name": "tokenId",
          "type": "uint256"
        }
      ],
      "name": "transferFrom",
      "outputs": [],
      "stateMutability": "nonpayable",
      "type": "function"
    },
    {
      "inputs": [
        {
          "internalType": "address",
          "name": "newOwner",
          "type": "address"
        }
      ],
      "name": "transferOwnership",
      "outputs": [],
      "stateMutability": "nonpayable",
      "type": "function"
    },
    {
      "inputs": [],
      "name": "withdraw",
      "outputs": [],
      "stateMutability": "nonpayable",
      "type": "function"
    }
  ],
  "bytecode": "0x6101406040523480156200001257600080fd5b5060405162003e9b38038062003e9b833981810160405281019062000038919062000722565b6040518060400160405280600d81526020017f52616e646f6d497066734e6674000000000000000000000000000000000000008152506040518060400160405280600481526020017f52414e4400000000000000000000000000000000000000000000000000000000815250878073ffffffffffffffffffffffffffffffffffffffff1660808173ffffffffffffffffffffffffffffffffffffffff1660601b81525050508160009080519060200190620000f59291906200028a565b5080600190805190602001906200010e9291906200028a565b5050506200013162000125620001bc60201b60201c565b620001c460201b60201c565b8573ffffffffffffffffffffffffffffffffffffffff1660a08173ffffffffffffffffffffffffffffffffffffffff1660601b815250508467ffffffffffffffff1660c08167ffffffffffffffff1660c01b815250508360e081815250508263ffffffff166101008163ffffffff1660e01b8152505080610120818152505050505050505062000842565b600033905090565b6000600760009054906101000a900473ffffffffffffffffffffffffffffffffffffffff16905081600760006101000a81548173ffffffffffffffffffffffffffffffffffffffff021916908373ffffffffffffffffffffffffffffffffffffffff1602179055508173ffffffffffffffffffffffffffffffffffffffff168173ffffffffffffffffffffffffffffffffffffffff167f8be0079c531659141344cd1fd0a4f28419497f9722a3daafe3b4186f6b6457e060405160405180910390a35050565b82805462000298906200080c565b90600052602060002090601f016020900481019282620002bc576000855562000308565b82601f10620002d757805160ff191683800117855562000308565b8280016001018555821562000308579182015b8281111562000307578251825591602001919060010190620002ea565b5b5090506200031791906200031b565b5090565b5b80821115620003365760008160009055506001016200031c565b5090565b6000604051905090565b600080fd5b600080fd5b600073ffffffffffffffffffffffffffffffffffffffff82169050919050565b60006200037b826200034e565b9050919050565b6200038d816200036e565b81146200039957600080fd5b50565b600081519050620003ad8162000382565b92915050565b600067ffffffffffffffff82169050919050565b620003d281620003b3565b8114620003de57600080fd5b50565b600081519050620003f281620003c7565b92915050565b6000819050919050565b6200040d81620003f8565b81146200041957600080fd5b50565b6000815190506200042d8162000402565b92915050565b600063ffffffff82169050919050565b6200044e8162000433565b81146200045a57600080fd5b50565b6000815190506200046e8162000443565b92915050565b600080fd5b6000601f19601f8301169050919050565b7f4e487b7100000000000000000000000000000000000000000000000000000000600052604160045260246000fd5b620004c48262000479565b810181811067ffffffffffffffff82111715620004e657620004e56200048a565b5b80604052505050565b6000620004fb6200033a565b9050620005098282620004b9565b919050565b600067ffffffffffffffff8211156200052c576200052b6200048a565b5b602082029050919050565b600080fd5b600080fd5b600067ffffffffffffffff8211156200055f576200055e6200048a565b5b6200056a8262000479565b9050602081019050919050565b60005b83811015620005975780820151818401526020810190506200057a565b83811115620005a7576000848401525b50505050565b6000620005c4620005be8462000541565b620004ef565b905082815260208101848484011115620005e357620005e26200053c565b5b620005f084828562000577565b509392505050565b600082601f83011262000610576200060f62000474565b5b815162000622848260208601620005ad565b91505092915050565b6000620006426200063c846200050e565b620004ef565b905080602084028301858111156200065f576200065e62000537565b5b835b81811015620006ad57805167ffffffffffffffff81111562000688576200068762000474565b5b808601620006978982620005f8565b8552602085019450505060208101905062000661565b5050509392505050565b600082601f830112620006cf57620006ce62000474565b5b6003620006de8482856200062b565b91505092915050565b6000819050919050565b620006fc81620006e7565b81146200070857600080fd5b50565b6000815190506200071c81620006f1565b92915050565b60008060008060008060c0878903121562000742576200074162000344565b5b60006200075289828a016200039c565b96505060206200076589828a01620003e1565b95505060406200077889828a016200041c565b94505060606200078b89828a016200045d565b935050608087015167ffffffffffffffff811115620007af57620007ae62000349565b5b620007bd89828a01620006b7565b92505060a0620007d089828a016200070b565b9150509295509295509295565b7f4e487b7100000000000000000000000000000000000000000000000000000000600052602260045260246000fd5b600060028204905060018216806200082557607f821691505b602082108114156200083c576200083b620007dd565b5b50919050565b60805160601c60a05160601c60c05160c01c60e0516101005160e01c610120516135ef620008ac60003960008181610d760152610f850152600061105f0152600061101b0152600061103c01526000610fdf01526000818161091d015261097101526135ef6000f3fe6080604052600436106101815760003560e01c806370a08231116100d1578063a36f573b1161008a578063b88d4fde11610064578063b88d4fde14610577578063c87b56dd146105a0578063e985e9c5146105dd578063f2fde38b1461061a57610181565b8063a36f573b146104df578063a51cccf31461051c578063aa1524911461055957610181565b806370a08231146103e1578063715018a61461041e5780637a5caab3146104355780638da5cb5b1461046057806395d89b411461048b578063a22cb465146104b657610181565b806323b872dd1161013e57806342842e0e1161011857806342842e0e146103255780635dacf5f41461034e5780636352211e146103795780636e02007d146103b657610181565b806323b872dd146102a85780633af25975146102d15780633ccfd60b1461030e57610181565b806301ffc9a71461018657806306fdde03146101c3578063081812fc146101ee578063095ea7b31461022b5780630b21a83b146102545780631fe543e31461027f575b600080fd5b34801561019257600080fd5b506101ad60048036038101906101a8919061222e565b610643565b6040516101ba9190612276565b60405180910390f35b3480156101cf57600080fd5b506101d8610725565b6040516101e5919061232a565b60405180910390f35b3480156101fa57600080fd5b5061021560048036038101906102109190612382565b6107b7565b60405161022291906123f0565b60405180910390f35b34801561023757600080fd5b50610252600480360381019061024d9190612437565b6107fd565b005b34801561026057600080fd5b50610269610915565b6040516102769190612486565b60405180910390f35b34801561028b57600080fd5b506102a660048036038101906102a191906125e9565b61091b565b005b3480156102b457600080fd5b506102cf60048036038101906102ca9190612645565b6109db565b005b3480156102dd57600080fd5b506102f860048036038101906102f39190612382565b610a3b565b604051610305919061232a565b60405180910390f35b34801561031a57600080fd5b50610323610aeb565b005b34801561033157600080fd5b5061034c60048036038101906103479190612645565b610b9f565b005b34801561035a57600080fd5b50610363610bbf565b6040516103709190612743565b60405180910390f35b34801561038557600080fd5b506103a0600480360381019061039b9190612382565b610bea565b6040516103ad91906123f0565b60405180910390f35b3480156103c257600080fd5b506103cb610c9c565b6040516103d89190612486565b60405180910390f35b3480156103ed57600080fd5b506104086004803603810190610403919061275e565b610ca6565b6040516104159190612486565b60405180910390f35b34801561042a57600080fd5b50610433610d5e565b005b34801561044157600080fd5b5061044a610d72565b6040516104579190612486565b60405180910390f35b34801561046c57600080fd5b50610475610d9a565b60405161048291906123f0565b60405180910390f35b34801561049757600080fd5b506104a0610dc4565b6040516104ad919061232a565b60405180910390f35b3480156104c257600080fd5b506104dd60048036038101906104d891906127b7565b610e56565b005b3480156104eb57600080fd5b5061050660048036038101906105019190612382565b610e6c565b60405161051391906123f0565b60405180910390f35b34801561052857600080fd5b50610543600480360381019061053e9190612382565b610e9f565b604051610550919061286e565b60405180910390f35b610561610f81565b60405161056e9190612486565b60405180910390f35b34801561058357600080fd5b5061059e6004803603810190610599919061293e565b611181565b005b3480156105ac57600080fd5b506105c760048036038101906105c29190612382565b6111e3565b6040516105d4919061232a565b60405180910390f35b3480156105e957600080fd5b5061060460048036038101906105ff91906129c1565b6111ea565b6040516106119190612276565b60405180910390f35b34801561062657600080fd5b50610641600480360381019061063c919061275e565b61127e565b005b60007f80ac58cd000000000000000000000000000000000000000000000000000000007bffffffffffffffffffffffffffffffffffffffffffffffffffffffff1916827bffffffffffffffffffffffffffffffffffffffffffffffffffffffff1916148061070e57507f5b5e139f000000000000000000000000000000000000000000000000000000007bffffffffffffffffffffffffffffffffffffffffffffffffffffffff1916827bffffffffffffffffffffffffffffffffffffffffffffffffffffffff1916145b8061071e575061071d82611302565b5b9050919050565b60606000805461073490612a30565b80601f016020809104026020016040519081016040528092919081815260200182805461076090612a30565b80156107ad5780601f10610782576101008083540402835291602001916107ad565b820191906000526020600020905b81548152906001019060200180831161079057829003601f168201915b5050505050905090565b60006107c28261136c565b6004600083815260200190815260200160002060009054906101000a900473ffffffffffffffffffffffffffffffffffffffff169050919050565b600061080882610bea565b90508073ffffffffffffffffffffffffffffffffffffffff168373ffffffffffffffffffffffffffffffffffffffff161415610879576040517f08c379a000000000000000000000000000000000000000000000000000000000815260040161087090612ad4565b60405180910390fd5b8073ffffffffffffffffffffffffffffffffffffffff166108986113b7565b73ffffffffffffffffffffffffffffffffffffffff1614806108c757506108c6816108c16113b7565b6111ea565b5b610906576040517f08c379a00000000000000000000000000000000000000000000000000000000081526004016108fd90612b66565b60405180910390fd5b61091083836113bf565b505050565b60095481565b7f000000000000000000000000000000000000000000000000000000000000000073ffffffffffffffffffffffffffffffffffffffff163373ffffffffffffffffffffffffffffffffffffffff16146109cd57337f00000000000000000000000000000000000000000000000000000000000000006040517f1cf993f40000000000000000000000000000000000000000000000000000000081526004016109c4929190612b86565b60405180910390fd5b6109d78282611478565b5050565b6109ec6109e66113b7565b826115fd565b610a2b576040517f08c379a0000000000000000000000000000000000000000000000000000000008152600401610a2290612c21565b60405180910390fd5b610a36838383611692565b505050565b6060600a8281548110610a5157610a50612c41565b5b906000526020600020018054610a6690612a30565b80601f0160208091040260200160405190810160405280929190818152602001828054610a9290612a30565b8015610adf5780601f10610ab457610100808354040283529160200191610adf565b820191906000526020600020905b815481529060010190602001808311610ac257829003601f168201915b50505050509050919050565b610af36118f9565b600047905060003373ffffffffffffffffffffffffffffffffffffffff1682604051610b1e90612ca1565b60006040518083038185875af1925050503d8060008114610b5b576040519150601f19603f3d011682016040523d82523d6000602084013e610b60565b606091505b5050905080610b9b576040517fca7e25b700000000000000000000000000000000000000000000000000000000815260040160405180910390fd5b5050565b610bba83838360405180602001604052806000815250611181565b505050565b610bc76120fd565b6040518060600160405280600a8152602001601e81526020016064815250905090565b6000806002600084815260200190815260200160002060009054906101000a900473ffffffffffffffffffffffffffffffffffffffff169050600073ffffffffffffffffffffffffffffffffffffffff168173ffffffffffffffffffffffffffffffffffffffff161415610c93576040517f08c379a0000000000000000000000000000000000000000000000000000000008152600401610c8a90612d02565b60405180910390fd5b80915050919050565b6000600954905090565b60008073ffffffffffffffffffffffffffffffffffffffff168273ffffffffffffffffffffffffffffffffffffffff161415610d17576040517f08c379a0000000000000000000000000000000000000000000000000000000008152600401610d0e90612d94565b60405180910390fd5b600360008373ffffffffffffffffffffffffffffffffffffffff1673ffffffffffffffffffffffffffffffffffffffff168152602001908152602001600020549050919050565b610d666118f9565b610d706000611977565b565b60007f0000000000000000000000000000000000000000000000000000000000000000905090565b6000600760009054906101000a900473ffffffffffffffffffffffffffffffffffffffff16905090565b606060018054610dd390612a30565b80601f0160208091040260200160405190810160405280929190818152602001828054610dff90612a30565b8015610e4c5780601f10610e2157610100808354040283529160200191610e4c565b820191906000526020600020905b815481529060010190602001808311610e2f57829003601f168201915b5050505050905090565b610e68610e616113b7565b8383611a3d565b5050565b60086020528060005260406000206000915054906101000a900473ffffffffffffffffffffffffffffffffffffffff1681565b600080600090506000610eb0610bbf565b905060005b6003811015610f4957828510158015610eef5750818160038110610edc57610edb612c41565b5b602002015183610eec9190612de3565b85105b15610f1157806002811115610f0757610f066127f7565b5b9350505050610f7c565b818160038110610f2457610f23612c41565b5b602002015183610f349190612de3565b92508080610f4190612e39565b915050610eb5565b506040517f12806c9d00000000000000000000000000000000000000000000000000000000815260040160405180910390fd5b919050565b60007f0000000000000000000000000000000000000000000000000000000000000000341015610fdd576040517ff64fbfee00000000000000000000000000000000000000000000000000000000815260040160405180910390fd5b7f000000000000000000000000000000000000000000000000000000000000000073ffffffffffffffffffffffffffffffffffffffff16635d3b1d307f00000000000000000000000000000000000000000000000000000000000000007f000000000000000000000000000000000000000000000000000000000000000060037f000000000000000000000000000000000000000000000000000000000000000060016040518663ffffffff1660e01b81526004016110a0959493929190612efa565b602060405180830381600087803b1580156110ba57600080fd5b505af11580156110ce573d6000803e3d6000fd5b505050506040513d601f19601f820116820180604052508101906110f29190612f62565b9050336008600083815260200190815260200160002060006101000a81548173ffffffffffffffffffffffffffffffffffffffff021916908373ffffffffffffffffffffffffffffffffffffffff160217905550807ff873236e6cc0ecc5be1a9a35c95ee5b8d1ac4cc7bfef0cc5060391d6cc98e26b3360405161117691906123f0565b60405180910390a290565b61119261118c6113b7565b836115fd565b6111d1576040517f08c379a00000000000000000000000000000000000000000000000000000000081526004016111c890612c21565b60405180910390fd5b6111dd84848484611baa565b50505050565b6060919050565b6000600560008473ffffffffffffffffffffffffffffffffffffffff1673ffffffffffffffffffffffffffffffffffffffff16815260200190815260200160002060008373ffffffffffffffffffffffffffffffffffffffff1673ffffffffffffffffffffffffffffffffffffffff16815260200190815260200160002060009054906101000a900460ff16905092915050565b6112866118f9565b600073ffffffffffffffffffffffffffffffffffffffff168173ffffffffffffffffffffffffffffffffffffffff1614156112f6576040517f08c379a00000000000000000000000000000000000000000000000000000000081526004016112ed90613001565b60405180910390fd5b6112ff81611977565b50565b60007f01ffc9a7000000000000000000000000000000000000000000000000000000007bffffffffffffffffffffffffffffffffffffffffffffffffffffffff1916827bffffffffffffffffffffffffffffffffffffffffffffffffffffffff1916149050919050565b61137581611c06565b6113b4576040517f08c379a00000000000000000000000000000000000000000000000000000000081526004016113ab90612d02565b60405180910390fd5b50565b600033905090565b816004600083815260200190815260200160002060006101000a81548173ffffffffffffffffffffffffffffffffffffffff021916908373ffffffffffffffffffffffffffffffffffffffff160217905550808273ffffffffffffffffffffffffffffffffffffffff1661143283610bea565b73ffffffffffffffffffffffffffffffffffffffff167f8c5be1e5ebec7d5bd14f71427d1e84f3dd0314c0f7b2291e5b200ac8c7c3b92560405160405180910390a45050565b60006008600084815260200190815260200160002060009054906101000a900473ffffffffffffffffffffffffffffffffffffffff1690506000600954905060006064846000815181106114cf576114ce612c41565b5b60200260200101516114e19190613050565b905060006114ee82610e9f565b90506114fa8484611c72565b6115bc83600a836002811115611513576115126127f7565b5b8154811061152457611523612c41565b5b90600052602060002001805461153990612a30565b80601f016020809104026020016040519081016040528092919081815260200182805461156590612a30565b80156115b25780601f10611587576101008083540402835291602001916115b2565b820191906000526020600020905b81548152906001019060200180831161159557829003601f168201915b5050505050611c90565b7f8a269f26b688e110e9cbd887d163dab35cae678fa353a0292de532c0cac1ecdc81856040516115ed929190613081565b60405180910390a1505050505050565b60008061160983610bea565b90508073ffffffffffffffffffffffffffffffffffffffff168473ffffffffffffffffffffffffffffffffffffffff16148061164b575061164a81856111ea565b5b8061168957508373ffffffffffffffffffffffffffffffffffffffff16611671846107b7565b73ffffffffffffffffffffffffffffffffffffffff16145b91505092915050565b8273ffffffffffffffffffffffffffffffffffffffff166116b282610bea565b73ffffffffffffffffffffffffffffffffffffffff1614611708576040517f08c379a00000000000000000000000000000000000000000000000000000000081526004016116ff9061311c565b60405180910390fd5b600073ffffffffffffffffffffffffffffffffffffffff168273ffffffffffffffffffffffffffffffffffffffff161415611778576040517f08c379a000000000000000000000000000000000000000000000000000000000815260040161176f906131ae565b60405180910390fd5b611783838383611d04565b61178e6000826113bf565b6001600360008573ffffffffffffffffffffffffffffffffffffffff1673ffffffffffffffffffffffffffffffffffffffff16815260200190815260200160002060008282546117de91906131ce565b925050819055506001600360008473ffffffffffffffffffffffffffffffffffffffff1673ffffffffffffffffffffffffffffffffffffffff16815260200190815260200160002060008282546118359190612de3565b92505081905550816002600083815260200190815260200160002060006101000a81548173ffffffffffffffffffffffffffffffffffffffff021916908373ffffffffffffffffffffffffffffffffffffffff160217905550808273ffffffffffffffffffffffffffffffffffffffff168473ffffffffffffffffffffffffffffffffffffffff167fddf252ad1be2c89b69c2b068fc378daa952ba7f163c4a11628f55a4df523b3ef60405160405180910390a46118f4838383611d09565b505050565b6119016113b7565b73ffffffffffffffffffffffffffffffffffffffff1661191f610d9a565b73ffffffffffffffffffffffffffffffffffffffff1614611975576040517f08c379a000000000000000000000000000000000000000000000000000000000815260040161196c9061324e565b60405180910390fd5b565b6000600760009054906101000a900473ffffffffffffffffffffffffffffffffffffffff16905081600760006101000a81548173ffffffffffffffffffffffffffffffffffffffff021916908373ffffffffffffffffffffffffffffffffffffffff1602179055508173ffffffffffffffffffffffffffffffffffffffff168173ffffffffffffffffffffffffffffffffffffffff167f8be0079c531659141344cd1fd0a4f28419497f9722a3daafe3b4186f6b6457e060405160405180910390a35050565b8173ffffffffffffffffffffffffffffffffffffffff168373ffffffffffffffffffffffffffffffffffffffff161415611aac576040517f08c379a0000000000000000000000000000000000000000000000000000000008152600401611aa3906132ba565b60405180910390fd5b80600560008573ffffffffffffffffffffffffffffffffffffffff1673ffffffffffffffffffffffffffffffffffffffff16815260200190815260200160002060008473ffffffffffffffffffffffffffffffffffffffff1673ffffffffffffffffffffffffffffffffffffffff16815260200190815260200160002060006101000a81548160ff0219169083151502179055508173ffffffffffffffffffffffffffffffffffffffff168373ffffffffffffffffffffffffffffffffffffffff167f17307eab39ab6107e8899845ad3d59bd9653f200f220920489ca2b5937696c3183604051611b9d9190612276565b60405180910390a3505050565b611bb5848484611692565b611bc184848484611d0e565b611c00576040517f08c379a0000000000000000000000000000000000000000000000000000000008152600401611bf79061334c565b60405180910390fd5b50505050565b60008073ffffffffffffffffffffffffffffffffffffffff166002600084815260200190815260200160002060009054906101000a900473ffffffffffffffffffffffffffffffffffffffff1673ffffffffffffffffffffffffffffffffffffffff1614159050919050565b611c8c828260405180602001604052806000815250611ea5565b5050565b611c9982611c06565b611cd8576040517f08c379a0000000000000000000000000000000000000000000000000000000008152600401611ccf906133de565b60405180910390fd5b80600660008481526020019081526020016000209080519060200190611cff92919061211f565b505050565b505050565b505050565b6000611d2f8473ffffffffffffffffffffffffffffffffffffffff16611f00565b15611e98578373ffffffffffffffffffffffffffffffffffffffff1663150b7a02611d586113b7565b8786866040518563ffffffff1660e01b8152600401611d7a9493929190613453565b602060405180830381600087803b158015611d9457600080fd5b505af1925050508015611dc557506040513d601f19601f82011682018060405250810190611dc291906134b4565b60015b611e48573d8060008114611df5576040519150601f19603f3d011682016040523d82523d6000602084013e611dfa565b606091505b50600081511415611e40576040517f08c379a0000000000000000000000000000000000000000000000000000000008152600401611e379061334c565b60405180910390fd5b805181602001fd5b63150b7a0260e01b7bffffffffffffffffffffffffffffffffffffffffffffffffffffffff1916817bffffffffffffffffffffffffffffffffffffffffffffffffffffffff191614915050611e9d565b600190505b949350505050565b611eaf8383611f23565b611ebc6000848484611d0e565b611efb576040517f08c379a0000000000000000000000000000000000000000000000000000000008152600401611ef29061334c565b60405180910390fd5b505050565b6000808273ffffffffffffffffffffffffffffffffffffffff163b119050919050565b600073ffffffffffffffffffffffffffffffffffffffff168273ffffffffffffffffffffffffffffffffffffffff161415611f93576040517f08c379a0000000000000000000000000000000000000000000000000000000008152600401611f8a9061352d565b60405180910390fd5b611f9c81611c06565b15611fdc576040517f08c379a0000000000000000000000000000000000000000000000000000000008152600401611fd390613599565b60405180910390fd5b611fe860008383611d04565b6001600360008473ffffffffffffffffffffffffffffffffffffffff1673ffffffffffffffffffffffffffffffffffffffff16815260200190815260200160002060008282546120389190612de3565b92505081905550816002600083815260200190815260200160002060006101000a81548173ffffffffffffffffffffffffffffffffffffffff021916908373ffffffffffffffffffffffffffffffffffffffff160217905550808273ffffffffffffffffffffffffffffffffffffffff16600073ffffffffffffffffffffffffffffffffffffffff167fddf252ad1be2c89b69c2b068fc378daa952ba7f163c4a11628f55a4df523b3ef60405160405180910390a46120f960008383611d09565b5050565b6040518060600160405280600390602082028036833780820191505090505090565b82805461212b90612a30565b90600052602060002090601f01602090048101928261214d5760008555612194565b82601f1061216657805160ff1916838001178555612194565b82800160010185558215612194579182015b82811115612193578251825591602001919060010190612178565b5b5090506121a191906121a5565b5090565b5b808211156121be5760008160009055506001016121a6565b5090565b6000604051905090565b600080fd5b600080fd5b60007fffffffff0000000000000000000000000000000000000000000000000000000082169050919050565b61220b816121d6565b811461221657600080fd5b50565b60008135905061222881612202565b92915050565b600060208284031215612244576122436121cc565b5b600061225284828501612219565b91505092915050565b60008115159050919050565b6122708161225b565b82525050565b600060208201905061228b6000830184612267565b92915050565b600081519050919050565b600082825260208201905092915050565b60005b838110156122cb5780820151818401526020810190506122b0565b838111156122da576000848401525b50505050565b6000601f19601f8301169050919050565b60006122fc82612291565b612306818561229c565b93506123168185602086016122ad565b61231f816122e0565b840191505092915050565b6000602082019050818103600083015261234481846122f1565b905092915050565b6000819050919050565b61235f8161234c565b811461236a57600080fd5b50565b60008135905061237c81612356565b92915050565b600060208284031215612398576123976121cc565b5b60006123a68482850161236d565b91505092915050565b600073ffffffffffffffffffffffffffffffffffffffff82169050919050565b60006123da826123af565b9050919050565b6123ea816123cf565b82525050565b600060208201905061240560008301846123e1565b92915050565b612414816123cf565b811461241f57600080fd5b50565b6000813590506124318161240b565b92915050565b6000806040838503121561244e5761244d6121cc565b5b600061245c85828601612422565b925050602061246d8582860161236d565b9150509250929050565b6124808161234c565b82525050565b600060208201905061249b6000830184612477565b92915050565b600080fd5b7f4e487b7100000000000000000000000000000000000000000000000000000000600052604160045260246000fd5b6124de826122e0565b810181811067ffffffffffffffff821117156124fd576124fc6124a6565b5b80604052505050565b60006125106121c2565b905061251c82826124d5565b919050565b600067ffffffffffffffff82111561253c5761253b6124a6565b5b602082029050602081019050919050565b600080fd5b600061256561256084612521565b612506565b905080838252602082019050602084028301858111156125885761258761254d565b5b835b818110156125b1578061259d888261236d565b84526020840193505060208101905061258a565b5050509392505050565b600082601f8301126125d0576125cf6124a1565b5b81356125e0848260208601612552565b91505092915050565b60008060408385031215612600576125ff6121cc565b5b600061260e8582860161236d565b925050602083013567ffffffffffffffff81111561262f5761262e6121d1565b5b61263b858286016125bb565b9150509250929050565b60008060006060848603121561265e5761265d6121cc565b5b600061266c86828701612422565b935050602061267d86828701612422565b925050604061268e8682870161236d565b9150509250925092565b600060039050919050565b600081905092915050565b6000819050919050565b6126c18161234c565b82525050565b60006126d383836126b8565b60208301905092915050565b6000602082019050919050565b6126f581612698565b6126ff81846126a3565b925061270a826126ae565b8060005b8381101561273b57815161272287826126c7565b965061272d836126df565b92505060018101905061270e565b505050505050565b600060608201905061275860008301846126ec565b92915050565b600060208284031215612774576127736121cc565b5b600061278284828501612422565b91505092915050565b6127948161225b565b811461279f57600080fd5b50565b6000813590506127b18161278b565b92915050565b600080604083850312156127ce576127cd6121cc565b5b60006127dc85828601612422565b92505060206127ed858286016127a2565b9150509250929050565b7f4e487b7100000000000000000000000000000000000000000000000000000000600052602160045260246000fd5b60038110612837576128366127f7565b5b50565b600081905061284882612826565b919050565b60006128588261283a565b9050919050565b6128688161284d565b82525050565b6000602082019050612883600083018461285f565b92915050565b600080fd5b600067ffffffffffffffff8211156128a9576128a86124a6565b5b6128b2826122e0565b9050602081019050919050565b82818337600083830152505050565b60006128e16128dc8461288e565b612506565b9050828152602081018484840111156128fd576128fc612889565b5b6129088482856128bf565b509392505050565b600082601f830112612925576129246124a1565b5b81356129358482602086016128ce565b91505092915050565b60008060008060808587031215612958576129576121cc565b5b600061296687828801612422565b945050602061297787828801612422565b93505060406129888782880161236d565b925050606085013567ffffffffffffffff8111156129a9576129a86121d1565b5b6129b587828801612910565b91505092959194509250565b600080604083850312156129d8576129d76121cc565b5b60006129e685828601612422565b92505060206129f785828601612422565b9150509250929050565b7f4e487b7100000000000000000000000000000000000000000000000000000000600052602260045260246000fd5b60006002820490506001821680612a4857607f821691505b60208210811415612a5c57612a5b612a01565b5b50919050565b7f4552433732313a20617070726f76616c20746f2063757272656e74206f776e6560008201527f7200000000000000000000000000000000000000000000000000000000000000602082015250565b6000612abe60218361229c565b9150612ac982612a62565b604082019050919050565b60006020820190508181036000830152612aed81612ab1565b9050919050565b7f4552433732313a20617070726f76652063616c6c6572206973206e6f7420746f60008201527f6b656e206f776e6572206e6f7220617070726f76656420666f7220616c6c0000602082015250565b6000612b50603e8361229c565b9150612b5b82612af4565b604082019050919050565b60006020820190508181036000830152612b7f81612b43565b9050919050565b6000604082019050612b9b60008301856123e1565b612ba860208301846123e1565b9392505050565b7f4552433732313a2063616c6c6572206973206e6f7420746f6b656e206f776e6560008201527f72206e6f7220617070726f766564000000000000000000000000000000000000602082015250565b6000612c0b602e8361229c565b9150612c1682612baf565b604082019050919050565b60006020820190508181036000830152612c3a81612bfe565b9050919050565b7f4e487b7100000000000000000000000000000000000000000000000000000000600052603260045260246000fd5b600081905092915050565b50565b6000612c8b600083612c70565b9150612c9682612c7b565b600082019050919050565b6000612cac82612c7e565b9150819050919050565b7f4552433732313a20696e76616c696420746f6b656e2049440000000000000000600082015250565b6000612cec60188361229c565b9150612cf782612cb6565b602082019050919050565b60006020820190508181036000830152612d1b81612cdf565b9050919050565b7f4552433732313a2061646472657373207a65726f206973206e6f74206120766160008201527f6c6964206f776e65720000000000000000000000000000000000000000000000602082015250565b6000612d7e60298361229c565b9150612d8982612d22565b604082019050919050565b60006020820190508181036000830152612dad81612d71565b9050919050565b7f4e487b7100000000000000000000000000000000000000000000000000000000600052601160045260246000fd5b6000612dee8261234c565b9150612df98361234c565b9250827fffffffffffffffffffffffffffffffffffffffffffffffffffffffffffffffff03821115612e2e57612e2d612db4565b5b828201905092915050565b6000612e448261234c565b91507fffffffffffffffffffffffffffffffffffffffffffffffffffffffffffffffff821415612e7757612e76612db4565b5b600182019050919050565b6000819050919050565b612e9581612e82565b82525050565b600067ffffffffffffffff82169050919050565b612eb881612e9b565b82525050565b600061ffff82169050919050565b612ed581612ebe565b82525050565b600063ffffffff82169050919050565b612ef481612edb565b82525050565b600060a082019050612f0f6000830188612e8c565b612f1c6020830187612eaf565b612f296040830186612ecc565b612f366060830185612eeb565b612f436080830184612eeb565b9695505050505050565b600081519050612f5c81612356565b92915050565b600060208284031215612f7857612f776121cc565b5b6000612f8684828501612f4d565b91505092915050565b7f4f776e61626c653a206e6577206f776e657220697320746865207a65726f206160008201527f6464726573730000000000000000000000000000000000000000000000000000602082015250565b6000612feb60268361229c565b9150612ff682612f8f565b604082019050919050565b6000602082019050818103600083015261301a81612fde565b9050919050565b7f4e487b7100000000000000000000000000000000000000000000000000000000600052601260045260246000fd5b600061305b8261234c565b91506130668361234c565b92508261307657613075613021565b5b828206905092915050565b6000604082019050613096600083018561285f565b6130a360208301846123e1565b9392505050565b7f4552433732313a207472616e736665722066726f6d20696e636f72726563742060008201527f6f776e6572000000000000000000000000000000000000000000000000000000602082015250565b600061310660258361229c565b9150613111826130aa565b604082019050919050565b60006020820190508181036000830152613135816130f9565b9050919050565b7f4552433732313a207472616e7366657220746f20746865207a65726f2061646460008201527f7265737300000000000000000000000000000000000000000000000000000000602082015250565b600061319860248361229c565b91506131a38261313c565b604082019050919050565b600060208201905081810360008301526131c78161318b565b9050919050565b60006131d98261234c565b91506131e48361234c565b9250828210156131f7576131f6612db4565b5b828203905092915050565b7f4f776e61626c653a2063616c6c6572206973206e6f7420746865206f776e6572600082015250565b600061323860208361229c565b915061324382613202565b602082019050919050565b600060208201905081810360008301526132678161322b565b9050919050565b7f4552433732313a20617070726f766520746f2063616c6c657200000000000000600082015250565b60006132a460198361229c565b91506132af8261326e565b602082019050919050565b600060208201905081810360008301526132d381613297565b9050919050565b7f4552433732313a207472616e7366657220746f206e6f6e20455243373231526560008201527f63656976657220696d706c656d656e7465720000000000000000000000000000602082015250565b600061333660328361229c565b9150613341826132da565b604082019050919050565b6000602082019050818103600083015261336581613329565b9050919050565b7f45524337323155524953746f726167653a2055524920736574206f66206e6f6e60008201527f6578697374656e7420746f6b656e000000000000000000000000000000000000602082015250565b60006133c8602e8361229c565b91506133d38261336c565b604082019050919050565b600060208201905081810360008301526133f7816133bb565b9050919050565b600081519050919050565b600082825260208201905092915050565b6000613425826133fe565b61342f8185613409565b935061343f8185602086016122ad565b613448816122e0565b840191505092915050565b600060808201905061346860008301876123e1565b61347560208301866123e1565b6134826040830185612477565b8181036060830152613494818461341a565b905095945050505050565b6000815190506134ae81612202565b92915050565b6000602082840312156134ca576134c96121cc565b5b60006134d88482850161349f565b91505092915050565b7f4552433732313a206d696e7420746f20746865207a65726f2061646472657373600082015250565b600061351760208361229c565b9150613522826134e1565b602082019050919050565b600060208201905081810360008301526135468161350a565b9050919050565b7f4552433732313a20746f6b656e20616c7265616479206d696e74656400000000600082015250565b6000613583601c8361229c565b915061358e8261354d565b602082019050919050565b600060208201905081810360008301526135b281613576565b905091905056fea26469706673582212203ea77684619a8fb4a6f1305f5136fdade18a0cd8118a32cccb3b7b18a0926ced64736f6c63430008080033",
  "linkReferences": {},
  "deployedLinkReferences": {}
}